{
  "_format": "hh-sol-artifact-1",
  "contractName": "WavePortal",
  "sourceName": "contracts/WavePortal.sol",
  "abi": [
    {
      "inputs": [],
      "stateMutability": "payable",
      "type": "constructor"
    },
    {
      "anonymous": false,
      "inputs": [
        {
          "indexed": true,
          "internalType": "uint256",
          "name": "newPrize",
          "type": "uint256"
        }
      ],
      "name": "newPrizeSet",
      "type": "event"
    },
    {
      "anonymous": false,
      "inputs": [
        {
          "indexed": true,
          "internalType": "uint256",
          "name": "prizeAmount",
          "type": "uint256"
        },
        {
          "indexed": false,
          "internalType": "address",
          "name": "winner",
          "type": "address"
        }
      ],
      "name": "weHaveWinner",
      "type": "event"
    },
    {
      "inputs": [],
      "name": "getAllWaves",
      "outputs": [
        {
          "components": [
            {
              "internalType": "address",
              "name": "waver",
              "type": "address"
            },
            {
              "internalType": "string",
              "name": "message",
              "type": "string"
            },
            {
              "internalType": "uint256",
              "name": "timestamp",
              "type": "uint256"
            }
          ],
          "internalType": "struct WavePortal.Wave[]",
          "name": "",
          "type": "tuple[]"
        }
      ],
      "stateMutability": "view",
      "type": "function"
    },
    {
      "inputs": [],
      "name": "getPrizeAmount",
      "outputs": [
        {
          "internalType": "uint256",
          "name": "",
          "type": "uint256"
        }
      ],
      "stateMutability": "view",
      "type": "function"
    },
    {
      "inputs": [],
      "name": "getTotalWaves",
      "outputs": [
        {
          "internalType": "uint256",
          "name": "",
          "type": "uint256"
        }
      ],
      "stateMutability": "view",
      "type": "function"
    },
    {
      "inputs": [
        {
          "internalType": "address",
          "name": "_waiver",
          "type": "address"
        }
      ],
      "name": "howMuchThiswave",
      "outputs": [
        {
          "internalType": "uint256",
          "name": "",
          "type": "uint256"
        }
      ],
      "stateMutability": "view",
      "type": "function"
    },
    {
      "inputs": [
        {
          "internalType": "address",
          "name": "",
          "type": "address"
        }
      ],
      "name": "lastWavedAt",
      "outputs": [
        {
          "internalType": "uint256",
          "name": "",
          "type": "uint256"
        }
      ],
      "stateMutability": "view",
      "type": "function"
    },
    {
      "inputs": [
        {
          "internalType": "uint256",
          "name": "_newPrize",
          "type": "uint256"
        }
      ],
      "name": "setPrizeAmount",
      "outputs": [],
      "stateMutability": "nonpayable",
      "type": "function"
    },
    {
      "inputs": [
        {
          "internalType": "address",
          "name": "",
          "type": "address"
        }
      ],
      "name": "waivers",
      "outputs": [
        {
          "internalType": "uint256",
          "name": "",
          "type": "uint256"
        }
      ],
      "stateMutability": "view",
      "type": "function"
    },
    {
      "inputs": [
        {
          "internalType": "string",
          "name": "_message",
          "type": "string"
        }
      ],
      "name": "wave",
      "outputs": [],
      "stateMutability": "nonpayable",
      "type": "function"
    }
  ],
  "bytecode": "0x6080604052655af3107a400060055533600660006101000a81548173ffffffffffffffffffffffffffffffffffffffff021916908373ffffffffffffffffffffffffffffffffffffffff160217905550620000a16040518060600160405280602581526020016200185b60259139600660009054906101000a900473ffffffffffffffffffffffffffffffffffffffff16620000a760201b620009b41760201c565b62000293565b620001498282604051602401620000c0929190620001c8565b6040516020818303038152906040527f319af333000000000000000000000000000000000000000000000000000000007bffffffffffffffffffffffffffffffffffffffffffffffffffffffff19166020820180517bffffffffffffffffffffffffffffffffffffffffffffffffffffffff83818316178352505050506200014d60201b60201c565b5050565b60008151905060006a636f6e736f6c652e6c6f679050602083016000808483855afa5050505050565b620001818162000218565b82525050565b60006200019482620001fc565b620001a0818562000207565b9350620001b28185602086016200024c565b620001bd8162000282565b840191505092915050565b60006040820190508181036000830152620001e4818562000187565b9050620001f5602083018462000176565b9392505050565b600081519050919050565b600082825260208201905092915050565b600062000225826200022c565b9050919050565b600073ffffffffffffffffffffffffffffffffffffffff82169050919050565b60005b838110156200026c5780820151818401526020810190506200024f565b838111156200027c576000848401525b50505050565b6000601f19601f8301169050919050565b6115b880620002a36000396000f3fe608060405234801561001057600080fd5b50600436106100885760003560e01c8063a42a46631161005b578063a42a466314610113578063bd43a90814610143578063c696238614610161578063ecca9c2e1461019157610088565b8063449d46c01461008d57806351386532146100a957806396ff6033146100c55780639a2cdc08146100f5575b600080fd5b6100a760048036038101906100a29190610d93565b6101af565b005b6100c360048036038101906100be9190610dd8565b6106ae565b005b6100df60048036038101906100da9190610d6a565b610775565b6040516100ec91906111ec565b60405180910390f35b6100fd61078d565b60405161010a91906111ec565b60405180910390f35b61012d60048036038101906101289190610d6a565b610796565b60405161013a91906111ec565b60405180910390f35b61014b6107ae565b6040516101589190611067565b60405180910390f35b61017b60048036038101906101769190610d6a565b6108ff565b60405161018891906111ec565b60405180910390f35b6101996109aa565b6040516101a691906111ec565b60405180910390f35b6101ee6040518060400160405280600f81526020017f74696d65207374616d702069733a20000000000000000000000000000000000081525042610a50565b42603c600460003373ffffffffffffffffffffffffffffffffffffffff1673ffffffffffffffffffffffffffffffffffffffff1681526020019081526020016000205461023b9190611278565b1061027b576040517f08c379a00000000000000000000000000000000000000000000000000000000081526004016102729061116c565b60405180910390fd5b42600460003373ffffffffffffffffffffffffffffffffffffffff1673ffffffffffffffffffffffffffffffffffffffff1681526020019081526020016000208190555060016000808282546102d19190611278565b9250508190555061035c6040518060400160405280601781526020017f257320776176656420772f206d657373616765202573210000000000000000008152503384848080601f016020809104026020016040519081016040528093929190818152602001838380828437600081840152601f19601f82011690508083019250505050505050610aec565b600260405180606001604052803373ffffffffffffffffffffffffffffffffffffffff16815260200184848080601f016020809104026020016040519081016040528093929190818152602001838380828437600081840152601f19601f82011690508083019250505050505050815260200142815250908060018154018082558091505060019003906000526020600020906003020160009091909190915060008201518160000160006101000a81548173ffffffffffffffffffffffffffffffffffffffff021916908373ffffffffffffffffffffffffffffffffffffffff160217905550602082015181600101908051906020019061045f929190610c53565b506040820151816002015550506001600360003373ffffffffffffffffffffffffffffffffffffffff1673ffffffffffffffffffffffffffffffffffffffff16815260200190815260200160002060008282546104bc9190611278565b925050819055506000606460015442446104d69190611278565b6104e09190611278565b6104ea919061136f565b905061052b6040518060400160405280601681526020017f52616e646f6d20232067656e6572617465643a2025730000000000000000000081525082610a50565b8060018190555060238111156106a95761057a6040518060400160405280600781526020017f257320776f6e2100000000000000000000000000000000000000000000000000815250336109b4565b4760055411156105bf576040517f08c379a00000000000000000000000000000000000000000000000000000000081526004016105b69061118c565b60405180910390fd5b60003373ffffffffffffffffffffffffffffffffffffffff166005546040516105e790611037565b60006040518083038185875af1925050503d8060008114610624576040519150601f19603f3d011682016040523d82523d6000602084013e610629565b606091505b505090508061066d576040517f08c379a0000000000000000000000000000000000000000000000000000000008152600401610664906111ac565b60405180910390fd5b6005547f09c1fa6186d2d8369abb4e2a82994e609d32f0fe9a846877e590376785cb785e3360405161069f919061104c565b60405180910390a2505b505050565b600660009054906101000a900473ffffffffffffffffffffffffffffffffffffffff1673ffffffffffffffffffffffffffffffffffffffff163373ffffffffffffffffffffffffffffffffffffffff161461073e576040517f08c379a0000000000000000000000000000000000000000000000000000000008152600401610735906111cc565b60405180910390fd5b80600581905550807fdd672060df69f8d3cefb857ec8781b9f9f10ab3e82ef82254c4c5b6b8055697860405160405180910390a250565b60036020528060005260406000206000915090505481565b60008054905090565b60046020528060005260406000206000915090505481565b60606002805480602002602001604051908101604052809291908181526020016000905b828210156108f657838290600052602060002090600302016040518060600160405290816000820160009054906101000a900473ffffffffffffffffffffffffffffffffffffffff1673ffffffffffffffffffffffffffffffffffffffff1673ffffffffffffffffffffffffffffffffffffffff16815260200160018201805461085b9061133d565b80601f01602080910402602001604051908101604052809291908181526020018280546108879061133d565b80156108d45780601f106108a9576101008083540402835291602001916108d4565b820191906000526020600020905b8154815290600101906020018083116108b757829003601f168201915b50505050508152602001600282015481525050815260200190600101906107d2565b50505050905090565b60006109636040518060600160405280602381526020016115606023913983600360008673ffffffffffffffffffffffffffffffffffffffff1673ffffffffffffffffffffffffffffffffffffffff16815260200190815260200160002054610b8b565b600360008373ffffffffffffffffffffffffffffffffffffffff1673ffffffffffffffffffffffffffffffffffffffff168152602001908152602001600020549050919050565b6000600554905090565b610a4c82826040516024016109ca929190611089565b6040516020818303038152906040527f319af333000000000000000000000000000000000000000000000000000000007bffffffffffffffffffffffffffffffffffffffffffffffffffffffff19166020820180517bffffffffffffffffffffffffffffffffffffffffffffffffffffffff8381831617835250505050610c2a565b5050565b610ae88282604051602401610a6692919061113c565b6040516020818303038152906040527f9710a9d0000000000000000000000000000000000000000000000000000000007bffffffffffffffffffffffffffffffffffffffffffffffffffffffff19166020820180517bffffffffffffffffffffffffffffffffffffffffffffffffffffffff8381831617835250505050610c2a565b5050565b610b86838383604051602401610b04939291906110b9565b6040516020818303038152906040527fe0e9ad4f000000000000000000000000000000000000000000000000000000007bffffffffffffffffffffffffffffffffffffffffffffffffffffffff19166020820180517bffffffffffffffffffffffffffffffffffffffffffffffffffffffff8381831617835250505050610c2a565b505050565b610c25838383604051602401610ba3939291906110fe565b6040516020818303038152906040527f07c81217000000000000000000000000000000000000000000000000000000007bffffffffffffffffffffffffffffffffffffffffffffffffffffffff19166020820180517bffffffffffffffffffffffffffffffffffffffffffffffffffffffff8381831617835250505050610c2a565b505050565b60008151905060006a636f6e736f6c652e6c6f679050602083016000808483855afa5050505050565b828054610c5f9061133d565b90600052602060002090601f016020900481019282610c815760008555610cc8565b82601f10610c9a57805160ff1916838001178555610cc8565b82800160010185558215610cc8579182015b82811115610cc7578251825591602001919060010190610cac565b5b509050610cd59190610cd9565b5090565b5b80821115610cf2576000816000905550600101610cda565b5090565b600081359050610d0581611531565b92915050565b60008083601f840112610d1d57600080fd5b8235905067ffffffffffffffff811115610d3657600080fd5b602083019150836001820283011115610d4e57600080fd5b9250929050565b600081359050610d6481611548565b92915050565b600060208284031215610d7c57600080fd5b6000610d8a84828501610cf6565b91505092915050565b60008060208385031215610da657600080fd5b600083013567ffffffffffffffff811115610dc057600080fd5b610dcc85828601610d0b565b92509250509250929050565b600060208284031215610dea57600080fd5b6000610df884828501610d55565b91505092915050565b6000610e0d8383610fc9565b905092915050565b610e1e816112ce565b82525050565b610e2d816112ce565b82525050565b6000610e3e82611217565b610e48818561123a565b935083602082028501610e5a85611207565b8060005b85811015610e965784840389528151610e778582610e01565b9450610e828361122d565b925060208a01995050600181019050610e5e565b50829750879550505050505092915050565b6000610eb382611222565b610ebd8185611256565b9350610ecd81856020860161130a565b610ed68161142d565b840191505092915050565b6000610eec82611222565b610ef68185611267565b9350610f0681856020860161130a565b610f0f8161142d565b840191505092915050565b6000610f27601883611267565b9150610f328261143e565b602082019050919050565b6000610f4a603483611267565b9150610f5582611467565b604082019050919050565b6000610f6d602683611267565b9150610f78826114b6565b604082019050919050565b6000610f90601983611267565b9150610f9b82611505565b602082019050919050565b6000610fb360008361124b565b9150610fbe8261152e565b600082019050919050565b6000606083016000830151610fe16000860182610e15565b5060208301518482036020860152610ff98282610ea8565b915050604083015161100e6040860182611019565b508091505092915050565b61102281611300565b82525050565b61103181611300565b82525050565b600061104282610fa6565b9150819050919050565b60006020820190506110616000830184610e24565b92915050565b600060208201905081810360008301526110818184610e33565b905092915050565b600060408201905081810360008301526110a38185610ee1565b90506110b26020830184610e24565b9392505050565b600060608201905081810360008301526110d38186610ee1565b90506110e26020830185610e24565b81810360408301526110f48184610ee1565b9050949350505050565b600060608201905081810360008301526111188186610ee1565b90506111276020830185610e24565b6111346040830184611028565b949350505050565b600060408201905081810360008301526111568185610ee1565b90506111656020830184611028565b9392505050565b6000602082019050818103600083015261118581610f1a565b9050919050565b600060208201905081810360008301526111a581610f3d565b9050919050565b600060208201905081810360008301526111c581610f60565b9050919050565b600060208201905081810360008301526111e581610f83565b9050919050565b60006020820190506112016000830184611028565b92915050565b6000819050602082019050919050565b600081519050919050565b600081519050919050565b6000602082019050919050565b600082825260208201905092915050565b600081905092915050565b600082825260208201905092915050565b600082825260208201905092915050565b600061128382611300565b915061128e83611300565b9250827fffffffffffffffffffffffffffffffffffffffffffffffffffffffffffffffff038211156112c3576112c26113a0565b5b828201905092915050565b60006112d9826112e0565b9050919050565b600073ffffffffffffffffffffffffffffffffffffffff82169050919050565b6000819050919050565b60005b8381101561132857808201518184015260208101905061130d565b83811115611337576000848401525b50505050565b6000600282049050600182168061135557607f821691505b60208210811415611369576113686113fe565b5b50919050565b600061137a82611300565b915061138583611300565b925082611395576113946113cf565b5b828206905092915050565b7f4e487b7100000000000000000000000000000000000000000000000000000000600052601160045260246000fd5b7f4e487b7100000000000000000000000000000000000000000000000000000000600052601260045260246000fd5b7f4e487b7100000000000000000000000000000000000000000000000000000000600052602260045260246000fd5b6000601f19601f8301169050919050565b7f576169742031206d696e75746573206174206c65617374210000000000000000600082015250565b7f547279696e6720746f207769746864726177206d6f7265206d6f6e657920746860008201527f616e2074686520636f6e7472616374206861732e000000000000000000000000602082015250565b7f4661696c656420746f207769746864726177206d6f6e65792066726f6d20636f60008201527f6e74726163740000000000000000000000000000000000000000000000000000602082015250565b7f4f6e6c79206f776e65722063616e20736574207072697a652100000000000000600082015250565b50565b61153a816112ce565b811461154557600080fd5b50565b61155181611300565b811461155c57600080fd5b5056fe54686973206164647265737320257320686173207761697665642025642074696d6573a26469706673582212208044f4850c3114341564d39fc894f25ea8074e6bb962cb8c14548a1fa9fb403c64736f6c63430008040033436f6e7472616374204465706c6f79656420616e64204f776e65722073657420746f202573",
  "linkReferences": {},
  "deployedLinkReferences": {}
}